:1000000001308A00B72900008E30A0002C08A10022
:100010002B08A200A301A108031D18282208A10093
:10002000A2010830A002A108031D1828A001202861
:100030000310A11B1F28A20DA10DA0031828A113B6
:100040008A11F0292B0803199228B3002F080319ED
:100050009228B307031833287F30B302031C922879
:100060000319922837288130B307031892283308E0
:10007000A000A101A201A3012C08B700B7172D0809
:10008000B6002E08B5001830B300B401351C602846
:100090003208A307031C5228A20A031D5228A10AF2
:1000A0000319B4173108A207031C5928A10A031920
:1000B000B4173008AD00AD172D08A1070318B41709
:1000C000B40DA10CA20CA30CB70CB60CB50C03100C
:1000D000B30B45280130A00703189228A11B7728ED
:1000E000B70DA30DA20DA10DA00303199228B71FF0
:1000F0008828A30A031D8828A20A031D8828A10AAC
:10010000031D8828A10CA20CA30CA00A0319922895
:100110002C08B4003008B406B41F9028A117962804
:10012000A1139628A001A101A201A3018A11002A0E
:100130002F0803195D29BB00330803195D29BB0291
:10014000031CA7287F30BB0703185D29AD28813029
:10015000BB02031C5D2903195D293B08A000A10116
:10016000A201A301BA013008B900B9173108B800DB
:100170003208B7001930BB003608B7020318D02880
:100180000130B8020318D028B9020318D028BA02E7
:100190000318D028BA0AB90AB80A3608B7070229DC
:1001A0003508B8020318EB280130B9020318EB2810
:1001B000BA020318EB28BA0AB90A3508B807360894
:1001C000B707031C0229B80A031D0229B90A031D37
:1001D0000229BA0A022934088038B9020318012911
:1001E0000130BA0203180129BA0A34088038B90765
:1001F0003508B807031CDF28B90A031DDF28BA0A2F
:10020000DF282314BB0B052910290310B70DB80DE7
:10021000B90DBA0D0310A30DA20DA10DBC0DBC2884
:100220003C1C18290310A10CA20CA30CBC0C1B290C
:10023000A00303195D29BC1B44290310B70DB80D99
:10024000B90DBA0D3608B702031830290130B802CB
:1002500003183029B90203183029BA02031C5329A4
:100260003508B80203183B290130B90203183B29AD
:10027000BA02031C532934088038B90203184429F0
:100280000130BA02031C5329A30A031D5329A20AF1
:10029000031D5329A10A031D5329A00A03195D292F
:1002A000A10CA20CA30C3008BB003408BB06BB1F7A
:1002B0005B29A1176129A1136129A001A101A20154
:1002C000A3018A11152A2C08B3003008B306B31F06
:1002D0006E2903110310AC1B0314A1292C08B300D1
:1002E0002F08B4002B08B40203197C29B31FA129DD
:1002F0000308013A8300A1293008B4002C08B40295
:1003000003198829B31FA1290308013A8300A129F1
:100310003108B4002D08B40203199429B31FA12990
:100320000308013A8300A1293208B4002E08B40260
:100330000319A029B31FA1290308013A8300A129A9
:1003400003108A112B2A2C30840083130008031910
:10035000B6290230A100A001A00BAC29A10BAB294A
:100360009730A000A00BB229800BA92908008401B6
:1003700083131F3083051F130030831691008312EF
:100380009A01073099001F130430831691008312DD
:100390001F170030831691001F129F161F13831220
:1003A0009F171F1483168700870183128701083067
:1003B000A1001F08C33921049F001330A000A00B27
:1003C000DF29E2299F149F18E32983161E08831250
:1003D000A5001E08A6002608AC002508AB000428CE
:1003E0003330AE00AD005330AC008030AB0023089A
:1003F000B2002208B1002108B0002008AF00222876
:100400002008AB002108AC002208AD002308AE0094
:10041000B2002208B1002108B0002008AF00B601E8
:10042000B501B4018930B30098282308AA00220836
:10043000A9002108A8002008A700AE01AD01AC0169
:100440007F30AB002A08B2002908B1002808B000AC
:100450002708AF00632903182F2A031D372A8316A4
:100460008701831287010130AC00A321432A831640
:1004700087010C30831287000230AB009630AC004D
:0A048000A321AB0B3E2AD72963002D
:02400E00E23F8F
:00000001FF
;PIC16F688
;CRC=5B7C  CREATED="13-jul.-17 17:48"
