:1000000001308A00B72900002C30840083130008D7
:10001000031917280230A100A001A00B0D28A10B85
:100020000C289730A000A00B1328800B0A2808008A
:100030008E30A0002C08A1002B08A200A301A1086B
:10004000031D2C282208A100A2010830A002A1084B
:10005000031D2C28A00134280310A11B3328A20D56
:10006000A10DA0032C28A1138A11EA292B0803193A
:10007000A628B3002F080319A628B307031847289A
:100080007F30B302031CA6280319A6284B28813011
:10009000B3070318A6283308A000A101A201A301F9
:1000A0002C08B700B7172D08B6002E08B500183079
:1000B000B300B401351C74283208A307031C66285A
:1000C000A20A031D6628A10A0319B4173108A20762
:1000D000031C6D28A10A0319B4173008AD00AD1731
:1000E0002D08A1070318B417B40DA10CA20CA30C82
:1000F000B70CB60CB50C0310B30B59280130A00790
:100100000318A628A11B8B28B70DA30DA20DA10DC6
:10011000A0030319A628B71F9C28A30A031D9C2827
:10012000A20A031D9C28A10A031D9C28A10CA20C55
:10013000A30CA00A0319A6282C08B4003008B406A2
:10014000B41FA428A117AA28A113AA28A001A101BD
:10015000A201A3018A11F9292F0803197129BB00F3
:10016000330803197129BB02031CBB287F30BB076E
:1001700003187129C1288130BB02031C712903199E
:1001800071293B08A000A101A201A301BA01300816
:10019000B900B9173108B8003208B7001930BB00F0
:1001A0003608B7020318E4280130B8020318E4281F
:1001B000B9020318E428BA020318E428BA0AB90AF3
:1001C000B80A3608B70716293508B8020318FF28F9
:1001D0000130B9020318FF28BA020318FF28BA0A2F
:1001E000B90A3508B8073608B707031C1629B80A34
:1001F000031D1629B90A031D1629BA0A162934083F
:100200008038B902031815290130BA0203181529DC
:10021000BA0A34088038B9073508B807031CF32830
:10022000B90A031DF328BA0AF3282314BB0B1929B2
:1002300024290310B70DB80DB90DBA0D0310A30D85
:10024000A20DA10DBC0DD0283C1C2C290310A10C23
:10025000A20CA30CBC0C2F29A00303197129BC1BF1
:1002600058290310B70DB80DB90DBA0D3608B702ED
:10027000031844290130B80203184429B9020318AD
:100280004429BA02031C67293508B80203184F290C
:100290000130B90203184F29BA02031C6729340838
:1002A0008038B902031858290130BA02031C6729A3
:1002B000A30A031D6729A20A031D6729A10A031DBA
:1002C0006729A00A03197129A10CA20CA30C3008FC
:1002D000BB003408BB06BB1F6F29A1177529A113EA
:1002E0007529A001A101A201A3018A110E2A2C08DF
:1002F000B3003008B306B31F822903110310AC1BEF
:100300000314B5292C08B3002F08B4002B08B4023D
:1003100003199029B31FB5290308013A8300B529B1
:100320003008B4002C08B40203199C29B31FB52966
:100330000308013A8300B5293108B4002D08B4023E
:100340000319A829B31FB5290308013A8300B52969
:100350003208B4002E08B4020319B429B31FB5291A
:100360000308013A8300B52903108A11242A840165
:1003700083131F3083051F130030831691008312EF
:100380009A01073099001F130130831691001F1640
:100390009F121F1383129F171F14003083168700AC
:1003A0008701831287010830A1001F08C339210487
:1003B0009F00C830AC0004209F149F18DD298316CD
:1003C0001E088312A5001E08A6002608AC002508FA
:1003D000AB001828AE01AD012030AC008130AB007D
:1003E0002308B2002208B1002108B0002008AF00A5
:1003F00036282008AB002108AC002208AD002308F5
:10040000AE00B2002208B1002108B0002008AF0001
:10041000B601B501B4018930B300AC282308AA00A5
:100420002208A9002108A8002008A700AE01AD01FC
:10043000AC017F30AB002A08B2002908B1002808BF
:10044000B0002708AF007729031C332A83168701E1
:100450000C30831287000430AB00FA30AC0004206B
:10046000AB0B2D2A3E2A8316870183128701143095
:10047000AB00FA30AC000420AB0B392AD32963005F
:02400E00E23F8F
:00000001FF
;PIC16F688
;CRC=6E5B  CREATED="06-jul.-17 15:38"
