:1000000001308A00B62900002D08B4003108B4067A
:10001000B41F0F2803110310AD1B031442282D0831
:10002000B4003008B5002C08B50203191D28B41F10
:1000300042280308013A830042283108B5002D0800
:10004000B50203192928B41F42280308013A830086
:1000500042283208B5002E08B50203193528B41F0E
:1000600042280308013A830042283308B5002F08CC
:10007000B50203194128B41F42280308013A83003E
:100080004228031008008E30A0002D08A1002C0883
:10009000A200A301A108031D57282208A100A20164
:1000A0000830A002A108031D5728A0015F280310F3
:1000B000A11B5E28A20DA10DA0035728A1138A1130
:1000C000002A2C080319D128B40030080319D128BC
:1000D000B407031872287F30B402031CD128031917
:1000E000D12876288130B4070318D1283408A0001D
:1000F000A101A201A3012D08B800B8172E08B7006E
:100100002F08B6001830B400B501361C9F283308FC
:10011000A307031C9128A20A031D9128A10A031911
:10012000B5173208A207031C9828A10A0319B517AE
:100130003108AE00AE172E08A1070318B517B50D8C
:10014000A10CA20CA30CB80CB70CB60C0310B40B8A
:1001500084280130A0070318D128A11BB628B80DA8
:10016000A30DA20DA10DA0030319D128B81FC72804
:10017000A30A031DC728A20A031DC728A10A031D3D
:10018000C728A10CA20CA30CA00A0319D1282D0882
:10019000B5003108B506B51FCF28A117D528A11382
:1001A000D528A001A101A201A3018A11102A3008BB
:1001B00003199C29BC00340803199C29BC02031CA8
:1001C000E6287F30BC0703189C29EC288130BC024C
:1001D000031C9C2903199C293C08A000A101A20131
:1001E000A301BB013108BA00BA173208B9003308BD
:1001F000B8001930BC003708B80203180F290130C5
:10020000B90203180F29BA0203180F29BB020318F9
:100210000F29BB0ABA0AB90A3708B80741293608B4
:10022000B90203182A290130BA0203182A29BB028D
:1002300003182A29BB0ABA0A3608B9073708B807CB
:10024000031C4129B90A031D4129BA0A031D41298A
:10025000BB0A412935088038BA0203184029013009
:10026000BB0203184029BB0A35088038BA07360894
:10027000B907031C1E29BA0A031D1E29BB0A1E2921
:100280002314BC0B44294F290310B80DB90DBA0D26
:10029000BB0D0310A30DA20DA10DBD0DFB283D1C30
:1002A00057290310A10CA20CA30CBD0C5A29A003C2
:1002B00003199C29BD1B83290310B80DB90DBA0D74
:1002C000BB0D3708B80203186F290130B9020318B3
:1002D0006F29BA0203186F29BB02031C9229360842
:1002E000B90203187A290130BA0203187A29BB022D
:1002F000031C922935088038BA020318832901307B
:10030000BB02031C9229A30A031D9229A20A031D02
:100310009229A10A031D9229A00A03199C29A10C64
:10032000A20CA30C3108BC003508BC06BC1F9A29DE
:10033000A117A029A113A029A001A101A201A30135
:100340008A11252A2D308400831300080319B5294A
:100350000230A100A001A00BAB29A10BAA29973064
:10036000A000A00BB129800BA829080084018313E9
:100370001F3083051F1300308316910083129A01EA
:1003800007309900A5011F130430831691008312D2
:100390001F170030831691001F129F161F13831220
:1003A0009F171F1483168700870183128701AF01EF
:1003B000AE01AD017F30AC002B08B3002A08B200BB
:1003C0002908B1002808B0000420031C562A083070
:1003D000A1001F08C33921049F001330A000A00B07
:1003E000EF29F2299F149F18F32983161E08831200
:1003F000A6001E08A7002708AD002608AC00432869
:100400003330AF00AE005330AD008030AC00230875
:10041000B3002208B2002108B1002008B000612812
:100420002008AC002108AD002208AE002308AF0070
:10043000B3002208B2002108B1002008B000B701C3
:10044000B601B5018930B400D7282308AB002208D3
:10045000AA002108A9002008A8003330AF00AE0090
:10046000AD008030AC002B08B3002A08B200290888
:10047000B1002808B00004200318402A031D482AB0
:1004800083168701831287010130AD00A221A50ADE
:100490000C30A500A5080319552AA5010230AC00AF
:1004A0009630AD00A221AC0B502AD72983168701C4
:1004B0000830831287000230AC009630AD00A221D4
:0804C000AC0B5D2AD729630093
:02400E00E23F8F
:00000001FF
;PIC16F688
;CRC=7EF5  CREATED="19-jul.-17 02:22"
